{
  "contractName": "MeterRecords",
  "abi": [
    {
      "inputs": [
        {
          "internalType": "uint256",
          "name": "",
          "type": "uint256"
        }
      ],
      "name": "records",
      "outputs": [
        {
          "internalType": "string",
          "name": "time",
          "type": "string"
        },
        {
          "internalType": "string",
          "name": "vplus",
          "type": "string"
        },
        {
          "internalType": "string",
          "name": "qv",
          "type": "string"
        },
        {
          "internalType": "string",
          "name": "vminus",
          "type": "string"
        },
        {
          "internalType": "string",
          "name": "cputemp",
          "type": "string"
        }
      ],
      "stateMutability": "view",
      "type": "function",
      "constant": true
    },
    {
      "inputs": [
        {
          "internalType": "string",
          "name": "_time",
          "type": "string"
        },
        {
          "internalType": "string",
          "name": "_vplus",
          "type": "string"
        },
        {
          "internalType": "string",
          "name": "_qv",
          "type": "string"
        },
        {
          "internalType": "string",
          "name": "_vminus",
          "type": "string"
        },
        {
          "internalType": "string",
          "name": "_cputemp",
          "type": "string"
        }
      ],
      "name": "addRecord",
      "outputs": [],
      "stateMutability": "nonpayable",
      "type": "function"
    },
    {
      "inputs": [
        {
          "internalType": "uint256",
          "name": "_index",
          "type": "uint256"
        }
      ],
      "name": "getRecord",
      "outputs": [
        {
          "internalType": "string",
          "name": "",
          "type": "string"
        },
        {
          "internalType": "string",
          "name": "",
          "type": "string"
        },
        {
          "internalType": "string",
          "name": "",
          "type": "string"
        },
        {
          "internalType": "string",
          "name": "",
          "type": "string"
        },
        {
          "internalType": "string",
          "name": "",
          "type": "string"
        }
      ],
      "stateMutability": "view",
      "type": "function",
      "constant": true
    },
    {
      "inputs": [],
      "name": "getRecordCount",
      "outputs": [
        {
          "internalType": "uint256",
          "name": "",
          "type": "uint256"
        }
      ],
      "stateMutability": "view",
      "type": "function",
      "constant": true
    }
  ],
  "bytecode": "0x608060405234801561001057600080fd5b50610fd4806100206000396000f3fe608060405234801561001057600080fd5b506004361061004c5760003560e01c806303e9e609146100515780632d1814f21461008557806334461067146100a1578063ca267f28146100d5575b600080fd5b61006b6004803603810190610066919061088c565b6100f3565b60405161007c959493929190610949565b60405180910390f35b61009f600480360381019061009a9190610af4565b610479565b005b6100bb60048036038101906100b6919061088c565b610548565b6040516100cc959493929190610949565b60405180910390f35b6100dd610836565b6040516100ea9190610c0a565b60405180910390f35b60608060608060606000805490508610610142576040517f08c379a000000000000000000000000000000000000000000000000000000000815260040161013990610c71565b60405180910390fd5b600080878154811061015757610156610c91565b5b90600052602060002090600502016040518060a001604052908160008201805461018090610cef565b80601f01602080910402602001604051908101604052809291908181526020018280546101ac90610cef565b80156101f95780601f106101ce576101008083540402835291602001916101f9565b820191906000526020600020905b8154815290600101906020018083116101dc57829003601f168201915b5050505050815260200160018201805461021290610cef565b80601f016020809104026020016040519081016040528092919081815260200182805461023e90610cef565b801561028b5780601f106102605761010080835404028352916020019161028b565b820191906000526020600020905b81548152906001019060200180831161026e57829003601f168201915b505050505081526020016002820180546102a490610cef565b80601f01602080910402602001604051908101604052809291908181526020018280546102d090610cef565b801561031d5780601f106102f25761010080835404028352916020019161031d565b820191906000526020600020905b81548152906001019060200180831161030057829003601f168201915b5050505050815260200160038201805461033690610cef565b80601f016020809104026020016040519081016040528092919081815260200182805461036290610cef565b80156103af5780601f10610384576101008083540402835291602001916103af565b820191906000526020600020905b81548152906001019060200180831161039257829003601f168201915b505050505081526020016004820180546103c890610cef565b80601f01602080910402602001604051908101604052809291908181526020018280546103f490610cef565b80156104415780601f1061041657610100808354040283529160200191610441565b820191906000526020600020905b81548152906001019060200180831161042457829003601f168201915b505050505081525050905080600001518160200151826040015183606001518460800151955095509550955095505091939590929450565b60006040518060a00160405280878152602001868152602001858152602001848152602001838152509050600081908060018154018082558091505060019003906000526020600020906005020160009091909190915060008201518160000190816104e59190610ecc565b5060208201518160010190816104fb9190610ecc565b5060408201518160020190816105119190610ecc565b5060608201518160030190816105279190610ecc565b50608082015181600401908161053d9190610ecc565b505050505050505050565b6000818154811061055857600080fd5b906000526020600020906005020160009150905080600001805461057b90610cef565b80601f01602080910402602001604051908101604052809291908181526020018280546105a790610cef565b80156105f45780601f106105c9576101008083540402835291602001916105f4565b820191906000526020600020905b8154815290600101906020018083116105d757829003601f168201915b50505050509080600101805461060990610cef565b80601f016020809104026020016040519081016040528092919081815260200182805461063590610cef565b80156106825780601f1061065757610100808354040283529160200191610682565b820191906000526020600020905b81548152906001019060200180831161066557829003601f168201915b50505050509080600201805461069790610cef565b80601f01602080910402602001604051908101604052809291908181526020018280546106c390610cef565b80156107105780601f106106e557610100808354040283529160200191610710565b820191906000526020600020905b8154815290600101906020018083116106f357829003601f168201915b50505050509080600301805461072590610cef565b80601f016020809104026020016040519081016040528092919081815260200182805461075190610cef565b801561079e5780601f106107735761010080835404028352916020019161079e565b820191906000526020600020905b81548152906001019060200180831161078157829003601f168201915b5050505050908060040180546107b390610cef565b80601f01602080910402602001604051908101604052809291908181526020018280546107df90610cef565b801561082c5780601f106108015761010080835404028352916020019161082c565b820191906000526020600020905b81548152906001019060200180831161080f57829003601f168201915b5050505050905085565b60008080549050905090565b6000604051905090565b600080fd5b600080fd5b6000819050919050565b61086981610856565b811461087457600080fd5b50565b60008135905061088681610860565b92915050565b6000602082840312156108a2576108a161084c565b5b60006108b084828501610877565b91505092915050565b600081519050919050565b600082825260208201905092915050565b60005b838110156108f35780820151818401526020810190506108d8565b60008484015250505050565b6000601f19601f8301169050919050565b600061091b826108b9565b61092581856108c4565b93506109358185602086016108d5565b61093e816108ff565b840191505092915050565b600060a08201905081810360008301526109638188610910565b905081810360208301526109778187610910565b9050818103604083015261098b8186610910565b9050818103606083015261099f8185610910565b905081810360808301526109b38184610910565b90509695505050505050565b600080fd5b600080fd5b7f4e487b7100000000000000000000000000000000000000000000000000000000600052604160045260246000fd5b610a01826108ff565b810181811067ffffffffffffffff82111715610a2057610a1f6109c9565b5b80604052505050565b6000610a33610842565b9050610a3f82826109f8565b919050565b600067ffffffffffffffff821115610a5f57610a5e6109c9565b5b610a68826108ff565b9050602081019050919050565b82818337600083830152505050565b6000610a97610a9284610a44565b610a29565b905082815260208101848484011115610ab357610ab26109c4565b5b610abe848285610a75565b509392505050565b600082601f830112610adb57610ada6109bf565b5b8135610aeb848260208601610a84565b91505092915050565b600080600080600060a08688031215610b1057610b0f61084c565b5b600086013567ffffffffffffffff811115610b2e57610b2d610851565b5b610b3a88828901610ac6565b955050602086013567ffffffffffffffff811115610b5b57610b5a610851565b5b610b6788828901610ac6565b945050604086013567ffffffffffffffff811115610b8857610b87610851565b5b610b9488828901610ac6565b935050606086013567ffffffffffffffff811115610bb557610bb4610851565b5b610bc188828901610ac6565b925050608086013567ffffffffffffffff811115610be257610be1610851565b5b610bee88828901610ac6565b9150509295509295909350565b610c0481610856565b82525050565b6000602082019050610c1f6000830184610bfb565b92915050565b7f496e76616c696420696e64657800000000000000000000000000000000000000600082015250565b6000610c5b600d836108c4565b9150610c6682610c25565b602082019050919050565b60006020820190508181036000830152610c8a81610c4e565b9050919050565b7f4e487b7100000000000000000000000000000000000000000000000000000000600052603260045260246000fd5b7f4e487b7100000000000000000000000000000000000000000000000000000000600052602260045260246000fd5b60006002820490506001821680610d0757607f821691505b602082108103610d1a57610d19610cc0565b5b50919050565b60008190508160005260206000209050919050565b60006020601f8301049050919050565b600082821b905092915050565b600060088302610d827fffffffffffffffffffffffffffffffffffffffffffffffffffffffffffffffff82610d45565b610d8c8683610d45565b95508019841693508086168417925050509392505050565b6000819050919050565b6000610dc9610dc4610dbf84610856565b610da4565b610856565b9050919050565b6000819050919050565b610de383610dae565b610df7610def82610dd0565b848454610d52565b825550505050565b600090565b610e0c610dff565b610e17818484610dda565b505050565b5b81811015610e3b57610e30600082610e04565b600181019050610e1d565b5050565b601f821115610e8057610e5181610d20565b610e5a84610d35565b81016020851015610e69578190505b610e7d610e7585610d35565b830182610e1c565b50505b505050565b600082821c905092915050565b6000610ea360001984600802610e85565b1980831691505092915050565b6000610ebc8383610e92565b9150826002028217905092915050565b610ed5826108b9565b67ffffffffffffffff811115610eee57610eed6109c9565b5b610ef88254610cef565b610f03828285610e3f565b600060209050601f831160018114610f365760008415610f24578287015190505b610f2e8582610eb0565b865550610f96565b601f198416610f4486610d20565b60005b82811015610f6c57848901518255600182019150602085019450602081019050610f47565b86831015610f895784890151610f85601f891682610e92565b8355505b6001600288020188555050505b50505050505056fea26469706673582212202f259b8ba3407dbca42c1fd93e4b29a3143ff25f5561d792aac953d08acf645964736f6c63430008130033",
  "immutableReferences": {},
  "source": "pragma solidity ^0.8.0;\n\ncontract MeterRecords {\n    struct MeterRecord {\n        string time;\n        string vplus;\n        string qv;\n        string vminus;\n        string cputemp;\n    }\n    \n    MeterRecord[] public records;\n    \n    function addRecord(string memory _time, string memory _vplus, string memory _qv, string memory _vminus, string memory _cputemp) public {\n        MeterRecord memory newRecord = MeterRecord(_time, _vplus, _qv, _vminus, _cputemp);\n        records.push(newRecord);\n    }\n    \n    function getRecord(uint256 _index) public view returns (string memory, string memory, string memory, string memory, string memory) {\n        require(_index < records.length, \"Invalid index\");\n        MeterRecord memory record = records[_index];\n        return (record.time, record.vplus, record.qv, record.vminus, record.cputemp);\n    }\n    \n    function getRecordCount() public view returns (uint256) {\n        return records.length;\n    }\n}\n",
  "sourcePath": "C:\\Users\\siddh\\Documents\\GitHub\\digital-twin-backend-web3\\contracts\\MeterRecords.sol",
  "compiler": {
    "name": "solc",
    "version": "0.8.19+commit.7dd6d404.Emscripten.clang"
  },
  "schemaVersion": "3.4.13",
  "updatedAt": "2023-04-14T19:09:38.722Z",
  "networkType": "ethereum",
  "devdoc": {
    "kind": "dev",
    "methods": {},
    "version": 1
  },
  "userdoc": {
    "kind": "user",
    "methods": {},
    "version": 1
  }
}